:020000040800F2
:10000000980D00201D0200089D3D0008573400088F
:10001000993D000819240008175700080000000047
:10002000000000000000000000000000554900082A
:100030006931000800000000D53F00085951000850
:1000400037020008370200083702000837020008AC
:10005000370200083702000837020008370200089C
:10006000370200083702000837020008370200088C
:10007000370200083702000837020008370200087C
:10008000370200083702000837020008370200086C
:10009000BD56000837020008370200083702000882
:1000A000370200083702000837020008370200084C
:1000B00037020008E95100084552000837020008DD
:1000C000370200083702000837020008370200082C
:1000D000370200083702000837020008370200081C
:1000E00037020008370200087754000800F002F8D1
:1000F00000F084F80AA090E8000C82448344AAF13E
:100100000107DA4501D100F079F8AFF2090EBAE83B
:100110000F0013F0010F18BFFB1A43F0010318473B
:10012000246B0000446B00000A444FF0000C10F8F0
:10013000013B13F0070408BF10F8014B1D1108BF65
:1001400010F8015B641E05D010F8016B641E01F805
:10015000016BF9D113F0080F1EBF10F8014BAD1C55
:100160000C1B09D16D1E58BF01F801CBFAD505E073
:1001700014F8016B01F8016B6D1EF9D59142D6D3CD
:10018000704700000023002400250026103A28BFF5
:1001900078C1FBD8520728BF30C148BF0B607047F9
:1001A000662906F00F8403681B0A28BF41F080010E
:1001B000642900F0B980752900F0B680782900F034
:1001C0002B81E42900F0EC80F52900F0E980732907
:1001D00000F08385002070471FB500F017FE040073
:1001E0000020002106F0AAF8401C606000200021D9
:1001F00006F08EF8E0601FBD10B510BD00F036FFB0
:100200001146FFF7E9FF05F06FFD01F0B5F903B402
:10021000FFF7F2FF03BC01F0DDFB00000948804757
:1002200009480047FEE7FEE7FEE7FEE7FEE7FEE7D8
:10023000FEE7FEE7FEE7FEE704480549054A064BF0
:100240007047000089510008ED0000089807002061
:10025000980D002098090020980900200FB41CB5C3
:10026000074B06AA7B4469460090059800F00BFDF9
:100270000020694600F01AFD1CBC5DF814FB00006C
:10028000450A000070B5044685690068C10601D5BD
:10029000302600E02026C00708D070BDD4E9012137
:1002A00030469047206A00F1010020626D1EF5D5AE
:1002B00070BD70B5044685690078C00708D170BD6F
:1002C000D4E9012120209047206A00F1010020623A
:1002D0006D1EF5D570BD70B50C460546012A05D0DA
:1002E0002878800600D5EA69002302E0012305E0B2
:1002F0005B1C934202D2E05C0028F9D1A869E618A1
:10030000C01AA861286A184428622846FFF7BAFF75
:1003100004E0D5E9012114F8010B9047B442F8D369
:100320002846FFF7C6FF70BD2DE9F04106460024C0
:1003300010687529314616A511D0AFF3008000284A
:1003400003DAC0F1000013A507E031688A0701D580
:1003500011A502E0490704D510A5012401E0AFF37F
:10036000008000210A2306F1240707E0B0FBF3F226
:1003700003FB1200303078541046491C0028F5D198
:1003800023462A463046BDE8F04100F00BBA000093
:10039000000000002D0000002B00000020000000E5
:1003A0002DE9F0418046D21D22F007020025D2E956
:1003B0000002F52914A612D0002A06DA0023D0EB99
:1003C000030063EB020211A608E0D8F800108B07C7
:1003D00001D50FA602E0490701D50EA60125114659
:1003E000002408F1240704E000F08CF930323A557B
:1003F000641C50EA0102F7D12B46324621464046A2
:10040000BDE8F04100F0CEB9000000002D00000072
:100410002B0000002000000070B504460D46214668
:100420001068AFF300802188090502D5104A7A448C
:1004300002E00F4A7A440E32002104F1240307E05F
:1004400000F00F064FEA1010965D5E5401F10101B5
:100450000028F5D103462078000704D5702D02D07E
:1004600009B1113202232046BDE8704000F09AB96C
:10047000436700002DE9F05F894604464FF0000A0B
:10048000DFF878B1FB44C0F820A02046E168884737
:10049000002875D0252806D0D4E901219047206A8C
:1004A000401C2062F1E700265F462046E16888474D
:1004B0002028054608DB312D06D207EB050010F891
:1004C000200C08B10643F0E7B00701D526F004067A
:1004D000C4F81CA00027C4F818A02A2D09D028466B
:1004E00005F0E7FA38B304EB8708303DC8F8185038
:1004F00019E059F8041B204604EB87029161E1687A
:100500008847012F054618D1E069002820DA26F037
:1005100020061DE0D8F8180000EB800005EB400035
:100520003038C8F818002046E1688847054605F0CD
:10053000C0FA0028EED1012F0AD02E2D08D1204676
:10054000E16888477F1C0546022F46F02006C4DB81
:10055000A069002803DA404246F00106A061F007D6
:1005600001D026F010066C2D0BD0682D09D04C2D33
:1005700039D06A2D35D0742D35D07A2D33D016E090
:1005800038E0E1682F4620468847B842054609D141
:100590006C2F26D04FF48060E168064320468847E0
:1005A000054604E06C2F1AD04FF4807006430DB35B
:1005B000A5F14100192802D8203546F400664A46C4
:1005C0002946204626604E46FFF7EAFD80B1012805
:1005D0000BD0F61D26F0070000F1080955E7402072
:1005E000E4E78020D8E70020D6E706F104094CE7CD
:1005F000284651E7206ABDE8F09F0000156700001B
:1006000070B5064600F07AF80468054630460A22BE
:10061000002100F0B7FB2C6070BD70B5064600F0FD
:100620006DF80468054630460A22002100F0AAFB56
:100630002C6070BD10B5431C02E010F8011B71B1B5
:100640008107FAD14FF0013202C88C1A8C4314EAA8
:10065000C211F9D0C01A0A0603D0C01E10BDC01ABC
:1006600010BD0A0401D0801E10BD0902FCD0401E3E
:1006700010BD00004FF0013C50F8042B51F8043B32
:100680009A4221D1A2EB0C03934313EACC1317D166
:1006900050F8042B51F8043B9A4215D1A2EB0C03FD
:1006A000934313EACC130BD150F8042B51F8043BBD
:1006B0009A4209D1A2EB0C03934313EACC13DBD08B
:1006C0004FF00000704700BFD01A01BAB1FA81F1B3
:1006D00001F0180122FA01F0CB40C1F12001DBB298
:1006E000C0B2C01A2CFA01F3D11A914311EAC31116
:1006F000E6D1704770477047704700000048704768
:100700003407002030B5B0F10A024FEA900E71F1C3
:1007100000034EEA817EB0EB0E0061EB91014FEADF
:10072000101E4EEA017E10EB0E0041EB11114FEA54
:10073000102E4EEA016E10EB0E0041EB11214FEA34
:10074000104E4EEA014E10EB0E0041EB11414018E5
:1007500041F100014FEAD00040EA41704FEAD10177
:1007600010EB80054FEA810444EA907444EB0104E5
:100770006D1944EB0404521BA3414FF0000348BF22
:100780000A3200D530BD401C41F1000130BD10B52A
:10079000FFF7B4FF006810BD10B50446FFF7AEFFC9
:1007A000046010BD2DE9F0470D4699469246044677
:1007B00000F124080168880604D5E06921F01001E1
:1007C000216000E00120A84202DDA0EB050700E067
:1007D0000027A16907EB050202EB0900A1EB00006D
:1007E000A0612078C00602D42046FFF74BFD00260A
:1007F00008E0D4E901211AF806009047206A401C5D
:10080000761C20624E45F4DB2078C0060AD52046CF
:10081000FFF738FD06E0D4E9012130209047206A37
:10082000401C2062381EA7F10107F4DC07E0D4E980
:10083000012118F805009047206A401C2062281EFC
:10084000A5F10105F3DC2046FFF733FD2078000613
:1008500002D50220BDE8F0870120FBE770472DE9B3
:10086000FF4F0C461E464FF0FF378BB0D2E9000118
:10087000DDF860800A908A46C1F30A5505B93D4605
:10088000002108464FF00000BAF1000F00F44000CC
:1008900005DA00EB80004FF4400101EA50004FEA16
:1008A0009059B9F1010F00DDB9460A9850EA4A00A3
:1008B0000ED044F61050A5F2FF3545432F14B8F181
:1008C000000F1ED07542291E1EDDC9F100021CE07A
:1008D000B8F1010F4FF0000001D0302103E0F243E6
:1008E00005E02154401CB042FBDB304600220021D1
:1008F00021540B99C1F80880C1E900200FB0BDE870
:10090000F08FBD1B6D1CDEE74A4600DA694206A87F
:1009100000F03AFB06AB07CB03AB07C350460A997E
:1009200001F072F88DE80700A0F500501F38009024
:100930000398002D09DD42F21F014A46084403A92D
:100940000390684601F0FBFA08E0A0F500504A4623
:100950001F3803A90390684601F019FB8DE80700D2
:100960000004000C03D04FF0FF30410800E01046B7
:10097000B8F1000F03D00022009215461FE0751E4B
:1009800006D4FFF7BFFE02F1300262556D1EF8D5A6
:10099000B3460122084302D000227F1C04E02078E5
:1009A000302801D100227F1E002A099787D01DE040
:1009B000112D07DAFFF7A6FE303262556D1C50EAA2
:1009C0000102F5D108430FD10021681E05E0235C28
:1009D000625C6354491C2254401E8142F7DBAB46E3
:1009E000A81B401E099001E0009848B1002004F8BF
:1009F0000B000B98099AC0F80880C0E9002B7DE72E
:100A000011264FF000085AE72DE9F04F88460446BA
:100A1000D21D22F0070191B0D1E90001CDE90A0110
:100A200004F0D4FF02460B98C00F01D02D2007E040
:100A30002068810701D52B2002E0202101EAC000B7
:100A4000032A099001D0072A05DB034641462046C8
:100A500000F0EAF90FE12078800601D5E06900E0B6
:100A60000620B8F1650F814606D0B8F1660F18D0A0
:100A7000B8F1670F72D132E00020B9F1110F009088
:100A800001DB112301E009F101030AAA01A90CA865
:100A9000FFF7E5FEDDE90C70002609F1010583464C
:100AA00048E001204B4600904FF000470AAA01A9F8
:100AB0000CA8FFF7D4FEDDE90DB00C995D460026C9
:100AC00018B909F1010001EB0005B9EB050003D4E9
:100AD000C0F1FF3609F10105A5EB09002BE0B9F1E2
:100AE000010F01DA4FF001090020B9F1110F009058
:100AF000484601DD112300E003460AAA01A90CA81B
:100B0000FFF7ADFEDDE90C704D46002683462078E8
:100B100000070AD4AB4500DA5D4601A8012D04DDCB
:100B2000411911F8011C302907D04F4502DA17F19D
:100B3000040F04DA0120824610E06D1EEEE7002F5C
:100B400002DCED1B3E4403E0781CA84200DD0546B4
:100B5000A7EB060000F1010A4FF0004720780007DC
:100B600003D4AA4501DB4FF0FF3A0021B7F1004F53
:100B70000DF143088DF8431023D002202B23002FC2
:100B800001DA7F422D234FF00A0C011EA0F1010073
:100B900000DC4FB197FBFCF10CFB11720F4602F128
:100BA000300208F8012DF0E7A8F101000370218858
:100BB000090501D5452100E06521A0F1010800F8F3
:100BC000011C09980FA9A1EB080707F1070700B15D
:100BD000012000EB050101EBEA70A1693844A1EBAB
:100BE0000000A0F10100A0612078C00602D42046D8
:100BF000FFF748FB099830B1D4E901219047206AFA
:100C000000F1010020622078C00620D52046FFF7C1
:100C100039FB1CE0002E04DBB34502DD01A8805D3A
:100C200000E03020D4E901219047206A761C401C66
:100C3000BAF1010A20620AD100F0E8F8C068016840
:100C4000405CD4E901219047206A401C2062281EA4
:100C5000A5F10105DEDC07E0D4E9012118F8010B5C
:100C60009047206A401C2062381EA7F10107F3DC80
:100C70002046FFF71EFB022011B040E601694A1C26
:100C800002610878704700B58FB0CDE901310021CD
:100C9000059105497944CDE9031011466846FFF7EF
:100CA000E9FB0FB000BD0000E5FFFFFF0A6802F896
:100CB000010B0A60704710B5436913B1AFF30080B0
:100CC00001E0FFF708FB012010BD127800F12401BC
:100CD0000A7000224A700122EDE711684FF0FF32DE
:100CE000E9E700000FB4002300B589B00CA900911A
:100CF0000B99CB60204B7B440693204B7B4407939E
:100D000004236FF00042CDE901321D4A7A446B465C
:100D100008920246002005F0B7FE09B05DF814FB0A
:100D200070B506464FF0FF3015460C46324686B089
:100D30000091CDE9010169460020049004A8FFF765
:100D4000D1FF03460498211825B108B10A4600E0F6
:100D500022462A6000280DD0002B02DD0098884230
:100D600008D03246081B69460094CDE9010404A866
:100D7000FFF7B8FF06B070BDAF010000C70100006B
:100D8000050100002DE9F04791460F4680460446D4
:100D9000002614F8015B2DB100F030F80068405DCA
:100DA000C007F6D12B2D02D02D2D18D0641E4A4637
:100DB0003946204600F098F827B13968A14201D1A0
:100DC000C7F800804FF0020471050BD5404200289F
:100DD00003DDFFF793FC0460A007BDE8F08746F44D
:100DE0008066E4E70028F8DAFFF788FC04606FF01B
:100DF0000040F2E7004870473407002010B500F0CB
:100E000005F8001D10BD00BF3555000000487047B3
:100E10005407002010B50446FFF7F0FF0068005D9E
:100E200000F0010010BD00002DE9F0411F4604460E
:100E300003260168072A01F4006004DB08B116A547
:100E400005E016A503E008B115A500E015A521F001
:100E500010002060A069C01EA0610FB1401EA061FB
:100E60002046FFF70FFA4FB1D4E9012138469047E9
:100E7000206A401C2062C01C206206E0206AFAE75B
:100E8000D4E9012115F8010B9047761EF8D22046CF
:100E9000FFF70FFABDE8F0814E414E006E616E0023
:100EA000494E4600696E6600426842B1016811F819
:100EB000013B23B1521EC0E90012184670470121C0
:100EC000C160881E704742685AB1C368016843B95F
:100ED00083688B4205D0491E521CC0E900120020D5
:100EE00070474FF0FF3070472DE9F05F824615469E
:100EF0008B4600270AF10104B9460078302801D05A
:100F00009DB113E014F8010B0127782803D058286D
:100F100001D045B10AE00DB1102D07D1002714F81A
:100F2000010B102502E0082500E00A250026B04646
:100F30000EE005FB080005FB06F101271FFA80F80B
:100F400001EB1046B6F5803F00D3B94614F8010B0B
:100F5000294600F0B0F80028EBDABBF1000F05D00D
:100F60000FB1641E00E05446CBF80040B9F1000F09
:100F700006D0FFF7C3FB02210160C81EBDE8F09F49
:100F800048EA0640FAE700002DE9F0478146164698
:100F90008AB035487844D0E9002380680092CDE9D2
:100FA0000130314878440C38D0E9022300690392BB
:100FB0004FF03702CDE9043041F69B30014491FBFC
:100FC000F2F0A0F1800502FB10141B3C02D5644234
:100FD000012000E00020DFF890A080460027FA44BE
:100FE000AAF1C60A0DE0E00709D03246684607EBD1
:100FF00047010AEB810100F0CAFF8DE80700641089
:101000007F1C002CEFD1184F7F44B43F17E0E80756
:1010100013D007EB04100DF1180A90E80E00AAE8AF
:101020000E00C068F04201D198190890324606A916
:1010300003A800F0ACFF03AB07C36D10641C002DC8
:10104000E5D132466946B8F1000F03A802D000F09E
:1010500076FF01E000F09BFFC9E90001C9F8082014
:101060000AB0BDE8F0870000945C00007546FFF709
:10107000C1FEAE4605006946534620F0070085468E
:1010800018B020B5FFF7D8F8BDE820404FF00006B3
:101090004FF000074FF000084FF0000B21F0070160
:1010A000AC46ACE8C009ACE8C009ACE8C009ACE8A3
:1010B000C0098D4670473A2800D2303820F020020F
:1010C000412A01D3A2F13700884201D34FF0FF300B
:1010D000704700002DE9FF4F064689B00878FF28C9
:1010E00006D0491C2D2805D000244FF0000908E047
:1010F00000200CE00124F8E709EB8903491C00EB10
:1011000043090878FF28F7D114B1C9F100008146DE
:10111000107800252C46AA4629462D2801D02B28D8
:1011200004D1521C2D2813D0002082468B46107803
:10113000FF280FD04FF0000C0A21521CA5FB0178AC
:1011400004FB018105FB0C11C5194BEB0104EEE713
:101150000120EAE7002108464FF00000BAF1000F35
:1011600002D000EB80004008C0F38158B8F1010FB5
:1011700001DD4FF0FF380C9809EB000755EA040039
:1011800006D14FEACA70C6E900B00DB0BDE8F08FD5
:1011900017F5FA7F4FF0020904DA4FEACA70C6E980
:1011A00000B00BE0B7F5FA7F0DDDF0487844D0E9E8
:1011B0000010C6E9001040EACA707060FFF79EFA9E
:1011C000C0F80090E1E7391E02DAC8F1000200E041
:1011D000424600DA794206A8FFF7D6FE06AB07CBF7
:1011E00003AB07C344F23E005BEA0401009058469B
:1011F00004D144F21E012C465D460091210C0904E5
:10120000014306D10099240444EA15442D04103901
:10121000009104F07F41014306D10099240244EA81
:1012200015642D020839009104F07041014306D184
:101230000099240144EA15742D01091F009104F05E
:101240004041014306D10099A40044EA9574AD00E1
:10125000891E009104F00041084304D100986D19E3
:101260006441401E009042466846002FCDE901458A
:1012700003A902DD00F09FFE01E000F074FEBAF168
:10128000000F04460D4601D084F0004440F2FF7781
:1012900024F00040284303D0C4F30A50B84212D1CE
:1012A000FFF72CFAC0F80090C4F30A50B8420AD1F4
:1012B000AF487844D0E90010C6E9001004F00041BE
:1012C0000843706061E7C6E900545EE72DE9FF4F0F
:1012D0001F464FF0000A4FF0FF38454691B0D7E95E
:1012E0000146CDF83CA0FFF791FDC0680168405C65
:1012F0001090B96912986D1C8847396A81468847F1
:101300000028F6D119F101000AD0002E24F4D0648F
:1013100012DDB9F12B0F08D0B9F12D0F0CD102E07D
:10132000404615B032E744F48064B96912986D1CE8
:1013300088478146A6F10106600504A901D52D2044
:1013400000E02B20002E01F1010B0DF130088DF88B
:1013500010003FDDB9F1690F08D0B9F1490F05D090
:10136000B9F16E0F02D0B9F14E0F1CD13B4601A866
:101370000095A0E85002DDE912126FF0020005F0BE
:1013800087FBC11CCDD10EE0B96912986D1C88474E
:1013900081461398761E44F4007405600F98401C33
:1013A000002E0F9016DDB9F1300FEDD0B9F1780FA6
:1013B00002D0B9F1580F0DD10F9801280AD13B4640
:1013C000CDE90054DDE91212001F029605F05EFB24
:1013D000C11CA6D1109989453ED144F0800406E095
:1013E0001399681CAAF1010A44F400740860B969F1
:1013F000761E12986D1C884730288146F0D02BE06D
:101400001099894505D1200603D4761E44F0800446
:1014100018E0484604F04DFB08B3761E0DF1230199
:101420008B4544F4007408D2A9F130000BF8010B8D
:10143000200607D5AAF1010003E0200602D40AF134
:1014400001008246A00502D51399681C0860B9699D
:1014500012986D1C88478146002ED1DC54E0002E86
:1014600052DDB9F1650F02D0B9F1450F4CD1A0059D
:101470004AD5B969761E12986D1C24F440748847C9
:10148000002E81460DDD2B2804D0B9F12D0F08D197
:1014900044F48074B96912986D1C88478146A6F19E
:1014A0000106E00501D52D2100E02B2108F8011BE4
:1014B000CDF8008021E0761E0DF13901884544F415
:1014C00000740CD2A9F1300010F0FF0088F8000081
:1014D00002D10099884509D908F1010806E0E00524
:1014E00001D5244801E042F20F708246B969129892
:1014F0006D1C8847814613980560002E04DD484620
:1015000004F0D7FA0028D6D1F96912988847FF204D
:1015100053468BF8000088F8000000200A900B90DA
:1015200004AA0CA90AA8FFF7D5FDA00502D46FF004
:101530000100F6E614F0240F0AD0E00714D1386851
:10154000DDE90A12031D3B600068C0E900120BE0F0
:101550000AA9684604F056FAE00705D13868009AEF
:10156000011D3960006802602846DAE6B45A0000BE
:10157000AE590000F1D8FFFF0446AFF300802046CB
:10158000FEF745FE2DE9FF4F1F464FF03C0987B09F
:101590004FF00042DDE9141001F10108DDF858A018
:1015A00002EA40500390002004908346054604461A
:1015B0000590B969461E08988847AAF1010A029069
:1015C000BAF1000F37DD02982E2815D01021FFF751
:1015D00072FD00282ADB4FF0010B0499014316D05D
:1015E000B9F1000F0BDB4A46C11700F0F9F90543CA
:1015F0000C43A9F1040905E00120059007E008B1BA
:1016000045F0010501200490059800B9361DB9691F
:10161000089808F101088847BBF1000FAAF1010AF8
:101620000290CDD00999C1F80080C9E702987028CE
:1016300008D0502806D0F96908988847BBF1000FF8
:1016400014D04FE0002002900120BBF1000F049065
:1016500009D0B969089808F101088847AAF1010979
:10166000B9F1000F07DCF969089888476FF00100AD
:101670000BB0BDE8F08F2B2804D02D280CD14FF0F3
:10168000FF300490B969089808F101088847A9F16A
:101690000109B9F1000FE6DD411CE4D00A21FFF792
:1016A0000AFD0028DFDB029908F1010801EB810146
:1016B00000EB41000290B969089888470A21FFF7BA
:1016C000FAFC099AA9F10109B9F1000FC2F80080EA
:1016D00001DD0028E7DAF96908988847049902983B
:1016E00000FB016655EA040001D103989CE004F078
:1016F0004041090004D1A40044EA9574AD00B61E2F
:1017000004F00041080002D16D196441761E15985D
:1017100010F0240F03D04FF00B095C4803E04FF0AA
:1017200028096FF07D008246564507DAAAEB0601CC
:101730008944B9F1410F01DD4FF041090120002139
:10174000A9F1010200F04CF9024628400B46214065
:10175000084301D0012100E00021501E029143F115
:10176000FF3128402140084301D0012000E0002043
:101770000299834651EA0B014FD0002108464FF0F1
:101780000000039900F4400039B100EB80004FF4F1
:10179000400100EBD07001EA60008015012802DDF5
:1017A0004FF0FF3000E013D0401C36D0029860B3F9
:1017B000BBF1000F0CD14A460120002100F010F9C6
:1017C00028402140084301D0012000E00020E0B182
:1017D00001204A46002100F003F9034640190A4659
:1017E00061412D1A8C4111D3B9F1400F09DD1598D3
:1017F00010F0240F02D0AAF1340603E0AAF1170674
:1018000000E0761C00254FF0004406E05B1E42F12C
:10181000FF3220EA030521EA0204CAF10100B042C6
:1018200006DA1B49039808430190002000900EE05F
:10183000039AC4F3D321E80A0A43164940EA445004
:101840000A433146CDE90002684604F027F91598AD
:1018500010F0240F0BD01598C00715D13868DDE9BA
:101860000012031D3B600068C0E900120CE002A8F2
:10187000694604F0C7F81598C00705D13868029A80
:10188000011D3960006802604046F1E602FCFFFF7E
:101890000000F07F0000F03F2DE9FF4F92461D460B
:1018A00085B04FF00041DDE9124BDDE914727F1E77
:1018B00001EA4B50434940F0FF4940EA010800214A
:1018C00022F020004928049102D04E282BD04FE06E
:1018D0003DA00126D0E9001280680091CDE90120E9
:1018E000A9690698641C88477F1E014606D41DF826
:1018F000060018B121F0200181420BD0E969069859
:101900008847032E34D0082E32D06FF0010009B082
:10191000BDE8F08F761C032E01D0082EE0D1601CAC
:10192000CAF80000DCE7A9690698641C88477F1E96
:101930002AD420F02000412826D1A9690698641CE9
:1019400088477F1E20D420F020004E281CD1A96992
:101950000698641C88477F1E48F4002849F48009D3
:10196000CAF8004001D4282806D0E96906988847BB
:101970005FEACB7012D022E0A9690698641C884700
:101980007F1E01D4002803DAE96906988847BCE77E
:101990002928F1D1641CCAF80040E9E71BF0240FA4
:1019A00007D028680499031D2B600068C0E900185F
:1019B00005E02868021D2A600068C0F800902046F3
:1019C000A5E700000000F07F494E46494E495459B2
:1019D0000000000001491820ABBEFEE7260002000F
:1019E000B2F120030AD5C2F1200301FA02F120FA74
:1019F00003F300FA02F041EA0301704700FA03F131
:101A00004FF00000704770475FEA400C08BF91F04C
:101A1000000F4FEA8C234FEAC12243EA51514FEAAB
:101A20001C5018BF00F5F0404FEA300018BF41F0DD
:101A300000415FEA6C5C00F02980BCF1FF3F08BF09
:101A400040F080407047130C06BF12044FF0100C9A
:101A50004FF0000C130E04BF12020CF1080C130F10
:101A600004BF12010CF1040C930F04BF92000CF19F
:101A7000020CD30F04BF52000CF1010C11464FF0C1
:101A80000002A0F11F00A0EB0C00704711F0004F06
:101A900008BF704731F000413FF4D5AF0B0C06BFD3
:101AA00009044FF0100C4FF0000C0B0E04BF09029C
:101AB0000CF1080C0B0F04BF09010CF1040C8B0F87
:101AC00004BF89000CF1020CCB0F04BF49000CF1DC
:101AD000010CCCF12003A0EB0C0022FA03F302FA74
:101AE0000CF241EA030100F10100704720F07F4C45
:101AF00080EA030023F07F47ACEB070303F57C5338
:101B000000F0004003F1FF032DE980494FEA154B37
:101B100009B44FEA144325EA0B4E24EA03480FF2B6
:101B2000042606EB132749083E785FEA320203FBDE
:101B30000667C7F5000707FB06F64FEA54374FEA7A
:101B4000D64606F1020607FB066CCCF1005C4FEAB4
:101B50001C472CEA074C07FB06F40CFB06F504EBCC
:101B600015464FEA961634BF00204FF000404FEA6A
:101B7000D13706FB07FC4FEA1C4C0CFB0BF7D21BC2
:101B800003FB0CF761EB07010CFB0EF7B0EB074012
:101B900072EB17420CFB08F734BFA2EB0742B2EB23
:101BA000074261EB17414FEA0C444FEA910706FBED
:101BB00007FC4FEA1C4C0CFB0BF7B0EBC74072EB79
:101BC000573203FB0CF734BFA2EBC742B2EBC7425C
:101BD00061EB57310CFB0EF7B0EBC70072EB57729D
:101BE0000CFB08F734BFA2EBC702B2EBC70261EBF4
:101BF0005771039F4FEA816141EA921104EBCC04D3
:101C00004FEAD1374FEA826206FB07FC42EA9012A4
:101C10004FEA80604FEA1C4C0CFB0BF7D21B03FB16
:101C20000CF761EB07010CFB0EF7B0EB074072EB12
:101C300017420CFB08F734BFA2EB0742B2EB074296
:101C400061EB17414FEA8C554FEA910704EB9C2456
:101C500006FB07FC4FEA1C4C0CFB0BF7B0EBC74034
:101C600072EB573203FB0CF734BFA2EBC742B2EB67
:101C7000C74261EB57310CFB0EF7B0EBC70072EBBC
:101C800057720CFB08F734BFA2EBC702B2EBC702D6
:101C900061EB577115EB4C254FEA816141EA9211D6
:101CA0004FEA82624FEAD13742EA901206FB07FC04
:101CB00044F100044FEA80604FEA1C4C0CFB0BF728
:101CC000D21B03FB0CF761EB07010CFB0EF7B0EB2B
:101CD000074072EB17420CFB08F734BFA2EB074238
:101CE000B2EB074261EB174115EB1C154FEA81314E
:101CF00041EA92414FEA823242EA90424FEA803012
:101D00004FEA0C7644F1000448EA03434EEA0B48DC
:101D10004FF0000EB2EB080C71EB030724BF6246D4
:101D200039464EEB0E0E4FF0000B00185241494160
:101D30004BEB0B0BB2EB080C71EB03077BF1000BC9
:101D400024BF624639464EEB0E0E4FF0000B0018D2
:101D5000524149414BEB0B0BB2EB080C71EB030703
:101D60007BF1000B24BF624639464EEB0E0E51EA62
:101D7000020718BF46F0010616EB0E7655F1000279
:101D800054F1000103D5BDE88901BDE80088BDE834
:101D90008901BDE80048B619524141EB0101A3F1A8
:101DA0000103704780807F7E7D7C7B7A79787776AF
:101DB00076757473727171706F6E6E6D6C6C6B6A28
:101DC0006A696868676666656464636362616160C6
:101DD000605F5F5E5E5D5D5C5C5B5B5A5A59595843
:101DE00058575756565555555454535352525251AD
:101DF000515050504F4F4F4E4E4D4D4D4C4C4C4B03
:101E00004B4B4A4A4A494949484848474747474649
:101E10004646454545444444444343434342424285
:101E20004241414146EA0646A3F570534FEA164641
:101E300046EA42564FEAD22242EA415210B54FEAF0
:101E4000D121A3F1010300F017F820F0004000F1C8
:101E5000010C00F0004701EB00501146BCF5006F8B
:101E600040EA070000D210BD02484FF0000140EAEE
:101E7000070010BD0000F07F002B26D4770021D092
:101E80001CB54FEA370703B44FF010004FF01001B4
:101E90004FF000000FBCBDE810400BF1010BBBF18F
:101EA000010F08BF5FEA170722BF12F1010211F10B
:101EB00001014FF0004143F1000300F0004043EA0C
:101EC00000007047F9D35708DAE746EA064613F1EF
:101ED000400F4FEA16461FDD13F1200FDFBF1643F8
:101EE0000A46002120335B42C8D0C3F1200746EAEE
:101EF000064602FA07F74FEA164646EA0706C3F116
:101F0000200722FA03F201FA07F721FA03F14FF052
:101F1000000342EA0702B1E746EA020646EA06463D
:101F20004FEA164646EA0106BCBF46EA0646360CAC
:101F30004FF000034FF000024FF000019EE72DE943
:101F4000C048934630B491E8380007C831EA400CE5
:101F500048BF34EA430C03D5FFF7C8FDFFF78CFFF9
:101F6000F0BCBDE800882DE9C048934630B491E844
:101F7000380007C831EA400C48BF34EA430C03D5A7
:101F8000FFF7B4FDFFF74EFFF0BCBDE800882DE978
:101F9000C048934630B491E8380007C810F0804F2D
:101FA00008BF13F0804F03D100F019F8FFF764FF6A
:101FB000F0BCBDE800882DE9C048934630B491E8F4
:101FC000380007C810F0804F08BF13F0804F03D1CE
:101FD00000F005F8FFF726FFF0BCBDE8008820F010
:101FE0007F4780EA030023F07F4C07EB0C03A3F547
:101FF0007C5300F00040A3F1FE0392F0000F00F0CC
:10200000B38095F0000F00F077802DE901494FEA89
:1020100011404FEA144621EA004800FB06FC24EA7E
:10202000064708FB06F607FB08F800FB07F718EB66
:1020300006484CEB164C4FEA124B18EB07484FEA98
:1020400015464CEB174022EA0B4E0BFB06FC25EA2B
:1020500006470EFB06F607FB0EFE0BFB07F71EEB13
:10206000064E4CEB164C4FF000061EEB074E4CEBA9
:10207000174B18EB0B0840F1000018EB0E0B58EB58
:10208000000840F100008F1A4FF000013CBFC94327
:10209000661B14BFB5EB040C00213CBFC943F61B03
:1020A0004FEA17444EEA8E0E27EA04454FEA1C47D2
:1020B00004FB07622CEA074C05FB07F70CFB05F64F
:1020C00004FB0CFC16EB074642EB174216EB0C46E2
:1020D00042EB1C421BEB060658EB0202414146EA6A
:1020E0009E0601D5BDE80189B619524141EB0101B7
:1020F000A3F10103BDE801894FEA14454FEA1147F6
:1021000024EA054621EA074C05FB07F406FB07F71E
:102110000CFB06F105FB0CFC11EB074144EB1744EB
:102120004FEA124711EB0C4144EB1C4422EA074CE6
:1021300005FB07F206FB07F70CFB06F605FB0CFC9C
:1021400016EB074642EB174216EB0C4642EB1C45DA
:102150006A1854F1000148BF7047B619524141EB6B
:102160000101A3F10103704795F0000F37D04FEA4A
:1021700011424FEA144721EA024624EA074C02FBC7
:1021800007F106FB07F70CFB06F402FB0CFC14EB53
:10219000074441EB17414FEA154714EB0C4441EB60
:1021A0001C4125EA074C02FB07F506FB07F70CFB71
:1021B00006F602FB0CFC16EB074645EB174516EB43
:1021C0000C4645EB1C42121951F1000148BF704703
:1021D000B619524141EB0101A3F1010370474FEAE7
:1021E00014454FEA114724EA054621EA074C05FB4E
:1021F00007F106FB07F70CFB06F24FF0000605FBA4
:102200000CFC12EB074241EB174112EB0C4251EB75
:102210001C4148BF7047921841EB0101A3F1010333
:10222000704721B1826842F00102826003E0826857
:1022300022F001028260704721B1826842F480720C
:10224000826003E0826822F480728260704700003E
:1022500010B504461248844208D10121401502F00D
:10226000CDF80021601502F0C9F817E00D4884424E
:1022700008D10121001502F0C1F80021201502F05B
:10228000BDF80BE00848844208D10121C80302F0E0
:10229000B5F800214FF4004002F0B0F810BD000086
:1022A0000024014000280140003C0140014600207C
:1022B0008A6812F0040F01D0012000E0002070476E
:1022C000014600208A6812F0080F01D0012000E0CA
:1022D0000020704730B502460020002350680F4CA4
:1022E00020400D790C6844EA052420435060906832
:1022F0000B4C2040D1E902542C434D7944EA45046B
:1023000020439060D06A20F470000C7C641EE4B21C
:10231000234340EA0350D06230BD0000FFFEF0FFCF
:10232000FDF7F1FFF0B504460D4600200021092D10
:1023300011DDE068A5F10A0606EB4607072606FA56
:1023400007F18843A5F10A0606EB460603FA06F1F3
:102350000843E0600CE0206905EB4507072606FA14
:1023600007F1884305EB450603FA06F108432061AF
:10237000072A0FDA606B561E06EB86071F2606FA41
:1023800007F18843561E06EB860605FA06F1084358
:10239000606322E00D2A0FDA206BD61F06EB86075A
:1023A0001F2606FA07F18843D61F06EB860605FAB4
:1023B00006F10843206310E0E06AA2F10D0606EB87
:1023C00086071F2606FA07F18843A2F10D0606EBE1
:1023D000860605FA06F10843E062F0BD816841F027
:1023E00008018160704721B1826842F4A0028260D6
:1023F00003E0826822F4A00282607047816841F0A5
:1024000004018160704700210160017141718160A8
:10241000C16001210174704700BFFEE70146CAB2E6
:102420000B1243EA0220704708B50020009015E126
:102430009048008800F00F008F4908700846007827
:1024400000287DD18D4800688D49088008460088A5
:1024500000F030008B4908808948008800F4405023
:1024600087490880854909684BF6BF7201EA020076
:1024700080F4005080F0200040F4004141F08001E1
:102480007E4A11607B48008810F0100F32D1104650
:10249000006848F60F7108401146086001F000F826
:1024A000764909684BF6BF7201EA0200744909884F
:1024B00011F4805F01D080F480507149098811F4D3
:1024C000005F01D080F400506E49098811F0100FB0
:1024D00001D080F010006B49098811F0200F01D065
:1024E00080F0200081B241F4004141F08001634A54
:1024F000116008BD6148006880B20090BDF800001E
:1025000010F4006F36D05D480068C0F30E0048F646
:102510008F7108405949086002F084FB57490968E7
:102520004BF6BF7201EA02005549098811F4805F39
:1025300001D080F480505249098811F4005F00E016
:1025400052E001D080F400504E49098811F0100F7C
:1025500001D080F010004B49098811F0200F01D004
:1025600080F0200081B241F4004141F08001434AF3
:102570001160BEE7BDF8000010F4004F6ED03F4878
:102580000068C0F30E0048F68F7108403B490860B0
:1025900001F0E4FC394909684BF6BF7201EA020018
:1025A0003749098811F4805F01D080F480503449A4
:1025B000098811F4005F01D080F400503149098886
:1025C00011F0100F01D080F010002E49098811F091
:1025D000200F01D080F0200081B241F4004141F091
:1025E0008001264A116084E723480078234951F886
:1025F000200080B20090BDF8000010F4004F14D00D
:102600001D48007851F82000C0F30E0048F68F7185
:10261000084019490978194A42F8210016490978F1
:10262000491E194A52F821008047BDF8000010F0F9
:10263000800F13D010480078104951F8200048F658
:102640000F7108400C4909780C4A42F821000A49E8
:102650000978491E0D4A52F8210080470748443046
:10266000006880B20349088010F4004F7FF4E0AEA8
:1026700000BF3EE7E800002008010020005C0040A9
:102680001C0100201E010020CC000020B000002012
:10269000094951F8201011F4804F0BD0064951F828
:1026A000201048F68F7211404CF280021143024A0A
:1026B00042F8201070470000005C0040094951F8C2
:1026C000201011F0400F0BD0064951F8201048F6A9
:1026D0008F72114048F2C0021143024A42F82010A2
:1026E00070470000005C0040064951F8201048F691
:1026F0008F62114048F280021143024A42F82010D2
:1027000070470000005C00402DE9F04FBBB0EA4884
:10271000007800280CD001212BA803F007FB82468B
:102720002BA8FDF787FF20B94FF0000A03F0DEF970
:10273000BEE1E2A12BA8FDF79DFF40B9E14AE2A16D
:102740006846FDF78BFD684603F0A8FBA8E1E2A10F
:102750002BA8FDF78FFF00282AD1BAF1010F0AD16B
:10276000DF48007818B1DFA003F098FB98E1E0A003
:1027700003F094FB94E102212BA803F0D7FAE0A127
:102780002BA8FDF777FF18B90120D549087087E11C
:10279000DCA12BA8FDF76EFF30B9DBA003F07EFBB8
:1027A0000020CF4908707BE1D8A003F077FB77E1E8
:1027B000DAA12BA8FDF75EFF00282AD1BAF1010F9C
:1027C0000AD1D748007818B1D6A003F067FB67E1BB
:1027D000D7A003F063FB63E102212BA803F0A6FA64
:1027E000C7A12BA8FDF746FF18B90120CC490870F6
:1027F00056E1C4A12BA8FDF73DFF30B9C2A003F0FC
:102800004DFB0020C64908704AE1CCA003F046FB0E
:1028100046E1CDA12BA8FDF72DFF50BBBAF1010F6A
:102820000AD1CA48007818B1C9A003F037FB37E1D4
:10283000CAA003F033FB33E102212BA803F076FAA0
:10284000AFA12BA8FDF716FF18B90120BF490870EA
:1028500026E1ACA12BA8FDF70DFF30B9AAA003F02B
:102860001DFB0020B94908701AE1BFA003F016FB58
:1028700016E1C0A12BA8FDF7FDFE48B9A2A003F008
:102880000DFBBDA003F00AFB9FA003F007FB07E1CF
:10289000C1A12BA8FDF7EEFE002873D1BAF1010FFC
:1028A00071DD02212BA803F041FA2BA8FDF7A8FE49
:1028B0008046B8F1040F03DDB8A003F0EFFAEFE0B3
:1028C000A8F1010808EB8800B74901EB8000B0F8D7
:1028D00006B0BBF1000F05D0BBF1020F88DDBBF1E4
:1028E000070F85DA03212BA803F020FA08EB8800F4
:1028F000AD4901EB800080880C2833D2DFE800F07E
:10290000C806334452616F7D8B99A7BA08EB8800E3
:10291000A54951F820002A902BA8FDF771FE8146A9
:10292000BBF1000F0AD1B9F1000F03D001212A98A1
:10293000017017E000212A98017013E0B9F1000F2F
:1029400008D008EB8801984A52F82100012103F0D1
:10295000F5FA07E008EB8801934A52F821000021BC
:1029600003F0ECFA94E008EB88008F4951F820005E
:1029700029902BA8FDF744FE81464FFA89F129984A
:10298000017085E089E084E008EB8800864951F811
:10299000200028902BA8FDF733FE8146289880F868
:1029A000009075E008EB88007F4951F820002790DF
:1029B0002BA8FDF725FE81460FFA89F127980180A3
:1029C00066E008EB8800784951F8200026902BA893
:1029D000FDF716FE81462698A0F8009058E008EB17
:1029E0008800714951F8200025902BA8FDF708FEBA
:1029F00081462598C0F800904AE008EB88006A49B3
:102A000051F8200024902BA8FDF7FAFD8146249868
:102A1000C0F800903CE008EB8800634951F82010B2
:102A200023912BA8FDF7F9FDC5170446239930C162
:102A30002EE008EB88005C4951F8201022912BA869
:102A4000FDF7EBFDC5170446229930C120E008EBE5
:102A50008800554951F8200021902BA803F030F848
:102A600006460F463046394603F07EFC0146219863
:102A700001600DE008EB88004B4951F820202092BE
:102A80002BA803F01DF806460F46209AC0C200BFCF
:102A900006E042A003F002FA02E044A003F0FEF9CF
:102AA0000F48007810B118A003F0F8F903F01EF8F1
:102AB0003BB0BDE8F08F000021010020534E465787
:102AC0000000000077142F4E0D0A534E5F4657202A
:102AD00025640D0A000000004543484F0000000037
:102AE000330100200D0A4543484F204F4E0D0A0088
:102AF0000D0A4543484F204F46460D0A000000008E
:102B00004F4E00004F4646000D0A00000D0A454397
:102B1000484F204552520D0A000000005348000063
:102B2000320100200D0A5348204F4E0D0A000000CC
:102B30000D0A5348204F46460D0A00000D0A53481F
:102B4000204552520D0A0000434C5300340100202E
:102B50000D0A434C53204F4E0D0A00000D0A434C02
:102B600053204F46460D0A000D0A434C5320455250
:102B7000520D0A0056455200494F206D6F64756C26
:102B8000652076302E372E3920286F70656E2D70B7
:102B90006C632E636F6D29005345540045525220DB
:102BA0005345540D0A000000D00100200D0A554E77
:102BB0004B4E4F574E20434F4D4D414E440D0A0052
:102BC00021B1026842F00102026004E002684FF69F
:102BD000FE731A400260704701684FF6FE721140A2
:102BE00001600021016041608160C1604B49884201
:102BF00008D14A490839496841F00F01474A083A63
:102C000051608AE045491431884208D14349083966
:102C1000496841F0F001414A083A51607DE03F497E
:102C20002831884208D13D490839496841F470612A
:102C30003A4A083A516070E038493C31884208D13C
:102C400036490839496841F47041344A083A5160BC
:102C500063E032495031884208D130490839496827
:102C600041F470212D4A083A516056E02B496431F5
:102C7000884208D129490839496841F47001274A36
:102C8000083A516049E025497831884208D1234902
:102C90000839496841F07061204A083A51603CE0C7
:102CA0001F49884206D1011F096841F00F01021F28
:102CB000116032E01A491431884208D11849091FBD
:102CC000096841F0F001164A121F116025E014490D
:102CD0002831884208D11249091F096841F47061FE
:102CE0000F4A121F116018E00D493C31884208D18B
:102CF0000B49091F096841F47041094A121F11600C
:102D00000BE007495031884207D10549091F09687E
:102D100041F47021024A121F1160704708000240FE
:102D20000804024010B50022026847F6F0739A4387
:102D30000C6A8B6823430C6923434C6923438C69D9
:102D40002343CC6923434C6A23438C6A23431A43AD
:102D50000260CB6843600B6883604B68C36010BD42
:102D60002DE9F0472848006800F110052E88264814
:102D70000068077AD6B9042F18D1244800780128B2
:102D80000FD100212248006880B2801C214A42F8FD
:102D9000101030202049088000BF00201B49087017
:102DA00003E0072710201C49088027E0AC88A642D2
:102DB00001D8042000E002200746B44200D934467E
:102DC000A0B2A96888478046002000F0F1FA814649
:102DD000A2B24946404602F0A1FCA1B2002001F097
:102DE00061FE2888001B2880688820446880302085
:102DF0000949088000020949088000BF02490968A2
:102E00000F72BDE8F08700000C01002004010020D3
:102E1000505C0040006000401E0100201C010020AA
:102E20002DE9F0412848006800F110042688A068C8
:102E3000C0B1BEB1A588B54200D93546A8B2A168D7
:102E4000884707462088401B20806088284460808F
:102E5000002000F08BFA8046AAB24146384601F0C5
:102E6000A5F800BF208850B14FF4405017490880A2
:102E70000021084601F016FE302015490880208800
:102E8000A188884204DB03200F490968087218E012
:102E90002088002804DD05200B490968087210E02D
:102EA000208870B90620084909680872002109487D
:102EB000006880B2801C084A42F810103020044993
:102EC0000880BDE8F08100000C0100201C010020FA
:102ED0001E010020505C0040006000402DE9F84FCA
:102EE0009848006845780027BA46062D1AD19548BB
:102EF0000068007810F07F0F13D192490968887834
:102F0000012803D190490968CF690AE0022803D15A
:102F10008D4909680F6A04E0032802D18A490968CB
:102F20004F6A90E0002D60D18648006840880028F4
:102F30005BD184480068C088022856D18148006867
:102F40000079002851D17F480068007810F07F0F89
:102F500005D17C480068808808B97C4F73E07948C7
:102F60000068007800F07F00012810D175490968D9
:102F70004879754909688A6900219047002862D11B
:102F800070480068807A00285DD0704F5BE06D4823
:102F90000068007800F07F00022854D1694800687A
:102FA000407900F00F0667480068407900F070092A
:102FB00064480068407910F0800F05D0644850F8EC
:102FC000260000F0300804E0614850F8260000F4C4
:102FD000405860480078B04235D9B9F1000F32D17D
:102FE000B8F1000F2FD0594F2DE0082D07D15548CB
:102FF0000068007810F07F0F25D1574F23E00A2D8D
:1030000021D150480068007800F07F0001281AD1D3
:103010004C480068807AB0B14A480068408890B94E
:1030200048480068007970B946480068C08801289F
:1030300009D1444909684879434909688A690021E6
:10304000904700B9454F57B13E480068A0F812A01C
:103050003C48006887610020B84700240FE0394AE7
:1030600012685078384A1268116988470446032C60
:1030700005D10920334909680872BDE8F88F314845
:103080000068008AA0F57F41FF3904D109202D494D
:1030900009680872F1E7022C03D02A480068008A08
:1030A00020B90820274909680872E6E72548006822
:1030B000007810F0800F3CD022480068C088009053
:1030C00020480068008A0099884204D91D49009868
:1030D0000968088223E01B480068008A19490968CA
:1030E000C98888421BDA17480068008A16490968AF
:1030F00091F82C10884203DA0020194908700EE07C
:1031000010480068008A1049096891F82C1090FB5B
:10311000F1F201FB120010B90120114908700A48B0
:10312000006890F82C10074800688182FFF718FEAD
:1031300006E0032003490968087200030949088072
:1031400000BF9AE70C01002010010020A14E0008EA
:10315000005C00401C000020254E0008754E000851
:10316000040100201C010020704710B500F072F926
:1031700010BD0000F8B50026354600BF2348007892
:103180000028FBD10120214908702149032002F0C9
:10319000ABFA85B22E4600208DF80100402D2DDAC5
:1031A000002429E01A48005D8DF800009DF8000019
:1031B0000D2809D100208DF8000001201549087064
:1031C00000201549087016E0134800783F2812DAED
:1031D0009DF8002010490878411C0F4B19700F49C9
:1031E0000A5400201A46127888540D48007810B10D
:1031F000684602F053FE641CAC42D3DB032001F0AE
:103200002BFC002001490870F8BD00007801002067
:10321000F4060020210100202001002020020020CF
:103220003301002001490860704700001404014088
:103230002DE9F0410246002500260020002300244D
:10324000002791F803C00CF00F0591F803C01CF0A3
:10325000100F03D091F802C04CEA050591F800C0A8
:10326000BCF1000F31D0146800202BE04FF0010CAE
:103270000CFA00F3B1F800C00CEA03069E4220D11C
:1032800083004FF00F0C0CFA03F7BC4305FA03FC64
:103290004CEA040491F803C0BCF1280F06D14FF0AA
:1032A000010C0CFA00FCC2F814C00AE091F803C04B
:1032B000BCF1480F05D14FF0010C0CFA00FCC2F82C
:1032C00010C0401C0828D1D31460B1F800C0BCF174
:1032D000FF0F34DD546800202EE000F1080C4FF0A1
:1032E000010808FA0CF3B1F800C00CEA03069E428C
:1032F00021D183004FF00F0C0CFA03F7BC4305FA01
:1033000003FC4CEA040491F803C0BCF1280F05D17A
:1033100000F1080C08FA0CF8C2F8148091F803C008
:10332000BCF1480F07D100F1080C4FF0010808FA72
:103330000CF8C2F81080401C0828CED35460BDE8B9
:10334000F0810246002093680B4201D0012000E08A
:103350000020704741617047016170474FF6FF716F
:103360000180022181700421C17070470146054827
:10337000006880B200EBC100001D034A32F8100063
:1033800080B27047505C0040006000400146064833
:10339000006880B200EBC100801D044A32F81000C2
:1033A000C0F3090070470000505C0040006000401E
:1033B00001460548006880B200EBC100034A32F8BC
:1033C000100080B270470000505C00400060004078
:1033D0001048006800680F490968896848400E492C
:1033E00008600C480068006800210C4A10605160B9
:1033F000114608684968002111605060054800685E
:1034000080681368526818431146044A106051607E
:10341000704700007C010020A0010020A8010020CE
:1034200070B50A480468001D0568001D066834442C
:1034300054B108220649204600F064FA04220449E7
:103440001031284600F05EFA70BD0000E8F7FF1F5B
:10345000EC000020704700BFFEE700004CF6CC40B7
:103460000149086070470000003000404AF6AA2079
:103470000149086070470000003000400149486081
:10348000704700000030004001498860704700002C
:1034900000300040014908607047000000300040E3
:1034A00010B518480068047A022C01D0042C05D10C
:1034B000FFF756FC13480068047A1CE0062C19D16B
:1034C00010480068407805280ED10E480068007842
:1034D00010F07F0F08D10B490968C87801F044FA51
:1034E00009490968086A8047084909688868804767
:1034F000082400E00824034909680C7200F06CFD00
:1035000010BD00000C010020180100201001002057
:1035100070B592B0002407E000209D4941F82400D6
:103520009C4941F82400641C082CF5DB002600258A
:10353000002099490880002421E097480088082845
:103540001CDA04EB8400954901EB8000C088012857
:1035500014D104EB840051F8202028466D1C8C49BE
:1035600041F820208C480088401C8B49088004EBDF
:1035700084008A4901EB800080890643641C042C86
:10358000DBDB854800884FF4007191FBF0F0844943
:103590000880084600888049098848438149088096
:1035A000012140F2012000F019FF0121084600F03E
:1035B000F5FE11A8FFF7D2FEADF8446000208DF8AB
:1035C000470003208DF8460011A97748FFF730FE29
:1035D0007648FFF701FB73480088049000200390B1
:1035E0000B90734802904FF4806008908020069002
:1035F000202009906F4801908015079000200590C9
:103600004FF400500A9001A96848FFF78BFB012195
:103610006648FFF7D5FA67484C38FEF719FE0CA844
:10362000FEF7F1FE01208DF8350000200F904FF4D9
:1036300060200E9000200C9057480088C0B28DF892
:10364000400001208DF834000CA95A484C38FEF790
:1036500041FE002471E000256CE04D4850F8240044
:1036600005EB85014D4A52F82110884261D105EBE6
:103670008500114601EB80008089102834D008DCD9
:1036800001280DD0022814D004281BD008284FD1BF
:1036900021E0202831D0402838D0802848D13EE091
:1036A000601CC2B20523002142484C38FEF73AFEA6
:1036B0003EE0601CC2B2052301213E484C38FEF7B3
:1036C00031FE35E0601CC2B20523022139484C3876
:1036D000FEF728FE2CE0601CC2B20523032135480A
:1036E0004C38FEF71FFE23E0601CC2B20523042104
:1036F00030484C38FEF716FE1AE0601CC2B20523B3
:1037000019462C484C38FEF70DFE11E0601CC2B281
:103710000523062127484C38FEF704FE08E0601C0C
:10372000C2B20523072123484C38FEF7FBFD00BF3A
:1037300000BF6D1C042D90DB641C17480088844278
:1037400089DB01211B484C38FEF76BFD012119482C
:103750004C38FEF771FD17484C38FEF73FFE00BFAE
:1037600014484C38FEF7ACFD0028F9D111484C380C
:10377000FEF744FE00BF0F484C38FEF797FD0028C7
:10378000F9D101210B484C38FEF72DFE12B070BD67
:10379000B00600209006002058010020D001002033
:1037A0005A0100205C01002000080140080002408E
:1037B000900200204C24014010B501F0E5FC01F01E
:1037C000AFF802F0E1F900F0BDF8642002F00EFC61
:1037D000FFF7FEFD4FF4FA6002F008FC01F070FE06
:1037E0004FF47A7002F002FC01F04CFE4FF47A7054
:1037F00002F0FCFB0948007830B1042108A002F077
:103800008AFB642002F086F9052107A002F083FB01
:10381000642002F07FF900F00BF810BD34010020A5
:103820001B630D0A000000002B2B2B0D0A0000006B
:103830001FB50121022000F0C1FD684601F012FE13
:103840000020ADF8020041F61F40ADF8000009204D
:10385000ADF804006946104801F0B2FD012211469E
:103860000D4801F0A3FD01210B4801F082FD4FF44A
:10387000A06000F0CFFA1D208DF80C0002208DF81A
:103880000D0003208DF80E0001208DF80F0003A815
:1038900000F086FA1FBD0000000400401FB50121A2
:1038A000042000F08BFD684601F0DCFD0020ADF83F
:1038B000020041F61F40ADF800000920ADF80400F9
:1038C00069460F4801F07CFD012211460C4801F0C9
:1038D0006DFD01210A4801F04CFD4FF4A06000F09D
:1038E00099FA1E208DF80C0002208DF80D008DF83D
:1038F0000E0001208DF80F0003A800F051FA1FBD43
:103900000008004030B50B46002100BF16E00A2435
:10391000B4EB107F05D9302404EB107403F8114088
:1039200005E0412404EB10740A3C03F81140000147
:1039300000254C00641C1D554C1CE1B29142E6DB95
:1039400030BD00002DE9FC4700F068FD002000F0CC
:10395000E3FD4FF4803000F0B9FD4FF4E0114FF477
:10396000803000F0FDFD002000F0A4FD4FF48060E9
:1039700000F0D8FD002000F0E1FD4FF4004000F021
:1039800001FD002000F006FE012000F0E3FD00BF75
:10399000392000F069FD0028FAD0022000F0EEFD89
:1039A00000BF00F07FFD0828FBD10121042000F0BA
:1039B00015FD0121082000F011FD0121102000F06B
:1039C0000DFD0121084600F009FD0121C80500F0A8
:1039D000F5FCDE48006840F08070DC490860DC4897
:1039E000DC490860DC48006840F00100DA49086002
:1039F000002048604FF4A06000F00CFA4FF4C05073
:103A0000ADF8040010208DF8070003208DF80600A3
:103A100001A9D248FFF70CFC4FF48051CF48FFF7C3
:103A200099FC01A8FFF79AFC0126D2E04FF00008AC
:103A30000027C9E017B9DFF8248308E0012F02D17D
:103A4000DFF81C8303E0022F01D1DFF81883002484
:103A5000002581E005EB8500C34901EB8000C088AB
:103A6000012802D14FF0000906E005EB8500BE49B0
:103A700001EB8000B0F80690B1456CD105EB8500F4
:103A8000B94901EB80008068404564D105EB8500B1
:103A900001EB80008089B0F5807F43D012DC1028D4
:103AA00034D008DC012825D0022826D0042827D0CD
:103AB00008284FD127E020282BD040282CD0802860
:103AC00048D12CE0B0F5805F38D009DCB0F5007F3C
:103AD0002BD0B0F5806F2BD0B0F5006F3AD12AE033
:103AE000B0F5005F2DD0B0F5804F2DD0B0F5004F70
:103AF00030D12CE044F001042CE044F0020429E031
:103B000044F0040426E044F0080423E044F01004E8
:103B100020E044F020041DE044F040041AE044F0AA
:103B2000800417E044F4807414E044F4007411E05D
:103B300044F480640EE044F400640BE044F48054E8
:103B400008E044F4005405E044F4804402E044F406
:103B5000004400BF00BF6D1C042DFFF67BAF94B383
:103B6000092E26D2DFE806F02505090D1115191DCD
:103B7000210000208DF807001BE004208DF80700CD
:103B800017E028208DF8070013E048208DF8070083
:103B90000FE014208DF807000BE010208DF80700CF
:103BA00007E010208DF8070003E010208DF80700D3
:103BB00000BF00BFADF8044001208DF8060001A948
:103BC0004046FFF735FB7F1C032FFFF633AF701C19
:103BD00086B2092EFFF62AAF002544E005EB8500EA
:103BE000614901EB8000C08804280DD005EB8500F9
:103BF00001EB8000C088072806D005EB850001EBAB
:103C00008000C08808280DD105EB8502564B03EBD8
:103C10008202918905EB850203EB82029068FFF72F
:103C20009BFB14E005EB85004F4901EB8000C08849
:103C300003280CD105EB85020B4603EB8202918928
:103C400005EB850203EB82029068FFF783FB05EB2F
:103C50008500454901EB8000C088012802D1434915
:103C6000088002E06D1C042DB8DB00BF3F480088CF
:103C700018B1FFF74DFCFFF711FE6FF0040001F0E3
:103C800056FA3B49B1F1807F00D323E021F07F4019
:103C9000401E4FF0E022506150170F2200280BDA2F
:103CA00013074FEA136A294BE43B00F00F0CACF109
:103CB000040C03F80CA005E013074FEA136C2D4B1E
:103CC00003F800C000BF00204FF0E0229061072001
:103CD000106100BF4FF4A06000F09CF8FF208DF849
:103CE000000000208DF8010003208DF80200012063
:103CF0008DF80300684600F053F845F25550FFF781
:103D0000C9FB0320FFF7BAFB40F6C410FFF7BCFB6A
:103D1000FFF7ACFBFFF7A2FB00201749086017492B
:103D20000860174908701749086017490860124869
:103D300000681649086010480068154908600E4878
:103D4000006814490860BDE8FC870000FCED00E055
:103D500055CEACC5B01F00E0001000E000080140E7
:103D6000000C014000100140D0010020580100204B
:103D700080FC0A0000E400E024010020280100206B
:103D800021010020500100205401002038010020B2
:103D90003C0100204001002000BFFEE77047704753
:103DA00070B5002100230F22C4780CB3164C246890
:103DB00004F4E064C4F5E064210AC1F10403CA40DC
:103DC000447804FA03F184781440214309010F4C2C
:103DD0000678A155047804F01F050124AC4005784D
:103DE0006D114FF0E02606EB8505C5F8004109E0AE
:103DF000047804F01F050124AC40054D06787611C7
:103E000045F8264070BD00000CED00E000E400E045
:103E100080E100E002490143024A1160704700005E
:103E20000000FA050CED00E070B502264648006877
:103E3000447845480068007810F07F0F44D1092C81
:103E400003D101F0A9F806465FE0052C14D13E48E5
:103E50000068C0787F280BDC3B480068807838B960
:103E600039480068808818B937480068807A08B1F6
:103E7000082565E0002648E0032C0ED13248006892
:103E8000C078012807D130480068808818B901F04F
:103E9000A7F8064639E0022637E0012C35D12A483A
:103EA0000068C07801280DD127480068808848B98B
:103EB00025480068407A10F0200F03D000F00EFF74
:103EC000064622E0022620E01F480068007800F045
:103ED0007F00012805D10B2C17D101F0F1F806461F
:103EE00013E019480068007800F07F0002280BD129
:103EF000012C03D100F0F2FE064606E0032C04D1AB
:103F000001F082F8064600E002264EB1E0B20F4A08
:103F10001268516988470646032E01D109250FE032
:103F20000EB108250CE0062500210948006880B282
:103F3000801C084A42F8101030200749088000BF52
:103F4000014909680D7270BD0C01002010010020AC
:103F5000505C0040006000401E01002010B5114878
:103F60000068047A022C01D0042C01D1082412E04C
:103F7000032C01D0052C05D1FEF752FF094800683B
:103F8000047A08E0072C05D107490968C86880470A
:103F9000082400E00824034909680C7200F01CF8AA
:103FA00010BD00000C01002010010020F0B5561CCF
:103FB0007510074E06EB41042B4605E034F8047BF0
:103FC00020F8017B401C5B1E002BF7D1F0BD0000E8
:103FD000006000407047000010B50D4890F82C10AC
:103FE000002000F0F7FC0B480068007A082805D193
:103FF00040020949088010200849088005480068E7
:10400000007A092801D1012010BD0020FCE7000042
:10401000200000200C0100201C0100201E010020B7
:1040200010B5012001F02DFA01240B480460002096
:104030000A49088008460088074908600020091DD1
:1040400008604FF4E050054908800846008802499E
:104050000860002010BD0000405C004016010020F8
:104060002DE9F04FA9B0A2480068A2490968401A9A
:1040700032287DD9A048007818B1A04800780028DF
:1040800076D19F48007810B19EA001F007FF002470
:1040900005E104EB84009D4901EB800080880C2839
:1040A00015D2DFE800F0FA06152535455566778A02
:1040B000C7DE04EB8400954951F820603378621C18
:1040C00093A104A8FCF7CAF804A801F0E7FEE4E015
:1040D00004EB84008D4951F8207097F90030621C80
:1040E0008EA104A8FCF7BAF804A801F0D7FED4E02A
:1040F00004EB8400854951F8208098F80030621C58
:1041000083A104A8FCF7AAF804A801F0C7FEC4E044
:1041100004EB84007D4951F82090B9F90030621C0D
:104120007EA104A8FCF79AF804A801F0B7FEB4E059
:1041300004EB8400754951F820A0BAF80030621CE5
:1041400073A104A8FCF78AF804A801F0A7FEA4E074
:1041500004EB84006D4951F820B0621C6FA104A8E3
:10416000DBF80030FCF77AF804A801F097FE94E041
:10417000BBE004EB8400654951F8200028902898A2
:10418000621C63A1036804A8FCF768F804A801F0A6
:1041900085FE82E004EB84005C4951F82000279002
:1041A000279803C8621CCDE900015FA104A8FCF7B1
:1041B00055F804A801F072FE6FE004EB8400534947
:1041C00051F82000269004EB840001EB8000C088A9
:1041D000082821D104EB840051F82080621C55A1ED
:1041E00004A8FCF73BF804A801F058FE002509E0FC
:1041F00018F8052051A104A8FCF730F804A801F034
:104200004DFE6D1C082DF3D34EA104A8FCF726F833
:1042100004A801F043FE0CE0269903C9621CCDE915
:10422000000149A104A8FCF719F804A801F036FE22
:1042300000BF32E004EB8400344951F8201025918E
:104240002599086802F048FBCDE90201621CCDE91E
:10425000000140A104A8FCF701F804A801F01EFE2B
:104260001BE004EB8400294951F820002490249895
:10427000D0E90021104602F077F8019002F02CFB03
:10428000CDE90201621CCDE9000132A104A8FBF7CF
:10429000E5FF04A801F002FE00BF00BF641C042C6F
:1042A000FFF4F7AE2E48FCF7C5F940B12C4A2DA11A
:1042B00004A8FBF7D3FF04A801F0F0FD00BF2848D5
:1042C0001230FCF7B7F948B1254A123229A104A8E7
:1042D000FBF7C4FF04A801F0E1FD00BF044800683B
:1042E0000449086017A001F0D9FD29B0BDE8F08F9E
:1042F0002401002040010020200200203301002082
:10430000340100201B5B481B5B324A00D0010020B7
:10431000252D38752025750D0A000000252D3875CE
:104320002025640D0A000000252D387520256C6CB1
:10433000640D0A00252D3875200000002530325804
:10434000000000000D0A0000252D387520256C6C3A
:10435000750D0A00252D387520252E34660D0A00AE
:10436000D00600204C434431202020202025730D0E
:104370000A0000004C434432202020202025730DE9
:104380000A00000001460020034A506820F4404023
:1043900008435060704700000010024029B1064AEF
:1043A00052690243044B5A6104E0034A5269824352
:1043B000014B5A61704700000010024029B1064AC3
:1043C000D2690243044BDA6104E0034AD2698243B2
:1043D000014BDA61704700000010024029B1064A23
:1043E00092690243044B9A6104E0034A9269824352
:1043F000014B9A61704700000010024029B1064A43
:10440000D2680243044BDA6004E0034AD268824374
:10441000014BDA6070470000001002400F4800684E
:1044200040F001000D490860084640680C4908400A
:104430000A494860084600680A4908400749086078
:104440000846006820F4802008600846406820F490
:10445000FE0048604FF41F00886070470010024063
:104460000000FFF8FFFFF6FE10B501460022002312
:1044700000204A11012A02D1094C236806E0022AD1
:1044800002D1074C236A01E0054C636A01F01F0268
:10449000012494401C4201D0012000E0002010BD06
:1044A000001002400248406800F00C007047000015
:1044B0000010024001460020034A506820F0F0003E
:1044C000084350607047000000100240114909681D
:1044D00021F480310F4A11601146096821F48021CE
:1044E0001160B0F5803F03D0B0F5802F0ED106E00B
:1044F0000849096841F48031064A116007E005491E
:10450000096841F4A021034A116000E000BF00BF28
:104510007047000000100240014908607047000029
:104520000000424201460020034A506820F4E06047
:104530000843506070470000001002400146002010
:10454000034A506820F4605040EAC1005060704750
:104550000010024001490866704700000000424216
:1045600002460020044B586820F47C1042EA010304
:104570001843014B5860704700100240014600206C
:10458000034A506820F00300084350607047000061
:10459000001002400149086070470000D800424204
:1045A0002DE9F041D148006818B9D1480068CF49D9
:1045B0000860D048006818B9CD480068CD49086047
:1045C000CD48006818B9CA480068CB490860CB4894
:1045D000006818B9C6480068C8490860C84800683B
:1045E00018B9C3480068C6490860C648006818B9C9
:1045F000BF480068C3490860C3480068002841D12B
:1046000000243CE004EB8400C04901EB8000C0883A
:1046100007282CD104EB84020B4603EB820291891C
:1046200004EB840203EB82029068FEF793FE4FF4E2
:10463000FA7001F0EBFC04EB8402B44B03EB820252
:10464000918904EB840203EB82029068FEF784FEFA
:104650004FF4FA7001F0DAFCA0B2CC2101F000FEB8
:104660001E2001F0D3FCA0B2442101F0F9FD01208D
:10467000A54908609E4800689C490860641C042C99
:10468000C0DB71E0A048006801280ED1984800689E
:1046900096490968401A642866D302209A4908603E
:1046A00093480068914908605EE0974800680228D6
:1046B00047D1002442E004EB8400944901EB8000E0
:1046C000C088072832D104EB84020B4603EB820238
:1046D000918904EB840203EB82029068FEF73AFEB4
:1046E0004FF4FA7001F092FC04EB8402874B03EB69
:1046F0008202918904EB840203EB82029068FEF748
:104700002BFE4FF4FA7001F081FCA0B2CC2101F035
:10471000A7FD1E2001F07AFCA0B2BE2101F0A0FD91
:104720001E2001F073FCA0B201F090FC032076493A
:1047300008606F4800686D490860641C042CBADB8F
:1047400012E07148006803280ED169480068674983
:104750000968401AB0F5967F06D300206A490860C0
:1047600063480068614908606948006808BB002424
:1047700015E004EB8400654901EB8000C08808283F
:104780000CD104EB84020B4603EB8202918904EB0B
:10479000840203EB82029068FEF7DCFD641C042CAB
:1047A000E7DB01205A490860514800685149086018
:1047B00042E05748006801283ED14D4800684D4905
:1047C0000968401A192837D3002415E004EB840047
:1047D0004E4901EB8000C08808280CD104EB84020C
:1047E0000B4603EB8202918904EB840203EB820205
:1047F0009068FEF7B1FD641C042CE7DB4FF4FA70FF
:1048000001F004FC002412E004EB84003F4901EBBA
:104810008000C088082809D1A0B2332101F020FD12
:104820003C2001F0F3FBA0B201F010FC641C042C4E
:10483000EADB002036490860002452E004EB8400E3
:10484000324901EB8000C08801281AD104EB8400B2
:1048500051F8207000250FE004EB84002B4951F83B
:1048600020002C4951F82510884204D12A4850F8DC
:104870002500388004E06D1C284800888542EBDB69
:104880002EE004EB8400214901EB8000C088012860
:1048900026DD04EB840001EB8000C08807281FDAC6
:1048A00004EB84020B4603EB8202918904EB840241
:1048B00003EB82029068FEF744FD08B1012000E09E
:1048C0000020804604EB8400104951F8206000204D
:1048D00004EB84010D4A52F82110086086F800802C
:1048E000641C042CAADBBDE8F08100003801002024
:1048F000240100203C010020400100204401002050
:10490000480100204C01002050010020D00100206F
:1049100054010020B006002090060020580100201D
:104920007047704710B50948006805280CD1084841
:1049300001680068401C064A1060052904D1002067
:1049400011460860FEF786FD10BD00000000002043
:1049500080010020704700004FF6F8710140014AC5
:1049600011607047505C004030B501460E4B1A781C
:10497000002010E0C3B20D4C54F8233048F68F7479
:10498000234048F280042343C4B22343C4B2074DFA
:1049900045F82430401C9042ECD341F08003034C96
:1049A0004C34236030BD00001C000020005C00403F
:1049B00010B54A105300054A126892B202EBC002C9
:1049C000121D034C44F8123010BD0000505C004032
:1049D0000060004010B502460F48006880B200EB4E
:1049E000C200801D0D4C04EB40033E290BDD481135
:1049F00011F01F0F01D1441EA0B24FF4004444EA4D
:104A000080241C6007E0481011F0010F01D0441C05
:104A1000A0B284021C6010BD505C004000600040E9
:104A200010B50C4B53F820304BF68F7403EA040298
:104A300011F4805F01D082F4805211F4005F01D044
:104A400082F4005242F4004343F08003014C44F8E6
:104A5000203010BD005C0040094A52F820204BF67F
:104A60008F7302EA030181F4805181F4005141F413
:104A7000004242F08002024B43F8202070470000C1
:104A8000005C004010B54A105300044A126892B20C
:104A900002EBC002024C44F8123010BD505C0040E2
:104AA00000600040044A126892B202EBC002921CFD
:104AB000024B43F812107047505C00400060004009
:104AC00010B50C4B53F8203048F6BF7403EA0402CB
:104AD00011F0100F01D082F0100211F0200F01D060
:104AE00082F0200242F4004343F08003014C44F87A
:104AF000203010BD005C0040094A52F8202048F6E2
:104B0000BF7302EA030181F0100181F0200141F43A
:104B1000004242F08002024B43F820207047000020
:104B2000005C0040054A52F8202048F68F131A40D6
:104B30000A43024B43F8202070470000005C00400D
:104B400010B500F001F810BD0CB5002001900090E8
:104B50003248006840F480303049086000BF2F4878
:104B6000006800F4003000900198401C019000980B
:104B700018B90198B0F5A06FF1D12848006810F479
:104B8000003F02D00120009001E00020009000983A
:104B9000012842D12248006840F0100020490860F6
:104BA0000846006820F0030008600846006840F0EE
:104BB0000200086019484068184948600846406883
:104BC00048600846406840F4806048600846406895
:104BD00020F47C1048600846406840F4E8104860C3
:104BE0000846006840F08070086000BF0B4800680D
:104BF00010F0007FFAD00948406820F00300074910
:104C000048600846406840F00200486000BF034822
:104C1000406800F00C000828F9D10CBD00100240DB
:104C20000020024038B501242948006880B2001DE8
:104C3000284931F8100080B201EB4000009026486E
:104C40000068007A092832D0009800782249096863
:104C500008700098401C0090009800781E49096870
:104C600048700098401C0090009800EB44000090B1
:104C7000009931F8020B0091FDF7D0FB1649096845
:104C80004880009800EB44000090009931F8020B36
:104C90000091FDF7C3FB104909688880009800EB7C
:104CA00044000090009800880B490968C8800120E2
:104CB00009490968087208480068C08810B9FFF7F8
:104CC000B3F801E0FEF70AF9FFF786F938BD0000F6
:104CD000505C0040006000400C0100202DE9F047CE
:104CE0004B480068007800F07F08B8F1000F0AD147
:104CF00047480068407A00F0DF004549096848727B
:104D00000020BDE8F087B8F1020F7ED1404800686E
:104D1000408818B93E480068007908B10220F0E7E1
:104D2000DFF8F0903A480068477927F080052C4674
:104D300037480068407910F0800F05D0364850F8A9
:104D4000240000F0300604E0334850F8240000F45A
:104D5000405699F80000A84204D91EB12C480068BA
:104D6000807A08B90220CCE717F0800F0ED02A48CD
:104D700050F8240000F0300010283FD1E0B2FDF7D9
:104D80009DFCE0B23021FFF79BFE37E0224850F84F
:104D9000240000F44050B0F5805F2FD1C4B91F4A01
:104DA00092F82C10E0B2FFF715FE1B4951F82410C1
:104DB0004BF68F7201EA020080F4805080F40050BC
:104DC00040F4004141F08001134A42F8241015E0FC
:104DD000E0B2FDF75DFC104951F824104BF68F72DC
:104DE00001EA020080F4805080F4005040F4004159
:104DF00041F08001084A42F8241000BF08490968C0
:104E00004869804700207CE7FFE700BF022078E781
:104E10000C0100201C000020005C0040200000204D
:104E20001801002010B504462CB901200649096874
:104E30000882002010BD05490968086880470248BB
:104E400000680A30F6E700000C010020180100207D
:104E500010B5024606480068438A32B98888C01AED
:104E6000034C24682082002010BD08681844FBE72A
:104E70000C01002010B504462CB901200649096830
:104E80000882002010BD05490968886880470248EB
:104E900000680C30F6E700000C010020180100202B
:104EA00010B504462CB90220374909680882002051
:104EB00010BD00203549088033480068007810F0A4
:104EC0007F0F23D130490968487A10F0200F06D0AF
:104ED0002E49097841F002012C4A117005E02B4956
:104EE000097801F0FD01294A117010F0400F06D039
:104EF0002649097841F00101244A117005E023494F
:104F0000097801F0FE01214A117036E01E48006860
:104F1000007800F07F00012801D11C48C8E71A483A
:104F20000068007800F07F00022824D1164A126839
:104F3000517901F00F0011F0800F0DD0144A52F892
:104F4000202002F03002102A14D1104A127842F0C8
:104F500001020E4B1A700DE00D4A52F8202002F4A7
:104F60004052B2F5805F05D1084A127842F0010242
:104F7000064B1A7001E000209AE7064909680869A3
:104F80008047024894E700000C0100200601002041
:104F9000005C00401801002010B50E480068C07881
:104FA0000D494978884213DC0A480068807878B94E
:104FB00008480068808858B906480068C0780549E4
:104FC000096888720549096848688047002010BD53
:104FD0000220FCE70C0100201C000020180100202A
:104FE00010B507480068407A40F02000044909687D
:104FF000487204490968C8698047002010BD000054
:105000000C010020180100202DE9F041284800681B
:10501000467926F080073C4625480068407910F024
:10502000800F05D0234850F8240000F0300504E03C
:10503000204850F8240000F440551F480078A04252
:1050400008D91B480068408820B91DB1184800687D
:10505000807A10B90220BDE8F08116F0800F10D0E0
:10506000144951F8241048F6BF7201EA020080F09A
:10507000100040F4004141F080010E4A42F8241033
:1050800010E00C4951F824104BF68F7201EA02002F
:1050900080F4805040F4004141F08001054A42F81C
:1050A000241000BF05490968886980470020D2E7BD
:1050B0000C010020005C00401C00002018010020B2
:1050C00010B5174B1B68D978154B1B685879154BD1
:1050D0001B689A699047044611480068807AE8B1D5
:1050E0003CB90F480068007918B90D48006880780D
:1050F00008B1022010BD8CB90B490968C868804707
:1051000007480068407906490968C8720448006881
:10511000C0780349096808730020EBE70220E9E73B
:105120000C01002010010020180100207047042805
:1051300008D14FF0E021096941F004014FF0E0226D
:10514000116107E04FF0E021096921F004014FF0FF
:10515000E02211617047000010B509480068401C4A
:105160000749086007490868411C064A116014286D
:1051700004D9002011460860FEF778F910BD000040
:10518000240100202C01002010B51348006840F0D5
:1051900001001149086008464068104908400E495E
:1051A0004860084600680E4908400B4908600846F8
:1051B000006820F4802008600846406820F4FE0063
:1051C00048604FF41F008860FFF7BAFC4FF00060A2
:1051D0000449086010BD0000001002400000FFF804
:1051E000FFFFF6FE08ED00E010B50021124800F0C8
:1051F000C0F8FDF789FAFFF7D3F91048007808B135
:10520000FEF72EFF0E490868411C0D4A1160142854
:1052100004D9002011460860FEF728F9012106484C
:1052200000F0B3F818B10121034800F09FF8012104
:10523000014800F09EF810BD00040040320100203B
:105240002C01002070B590B00021424800F091F888
:10525000002406E0002008A941F824004DF82400AD
:10526000641C3D4800888442F4DB0026002422E0D0
:1052700000251BE0394830F8160010F4004F13D118
:1052800008A850F82500354931F81610084408A937
:1052900041F825005DF82500401C4DF825004FF62B
:1052A000FF702E4921F81600761C6D1C2A480088D4
:1052B0008542DFDB641C2A4800888442D8DB002456
:1052C0001CE008A850F8240025490988B0FBF1F03B
:1052D000244941F824005DF8240050B108A850F892
:1052E00024005DF82410B0FBF1F008A941F8240077
:1052F00003E0002008A941F82400641C1648008837
:105300008442DEDB002406E008A850F8240015499A
:1053100041F82400641C104800888442F4DB1249E0
:105320000868411C104A1160142804D90020114655
:105330000860FEF79BF80121064800F026F818B136
:105340000121044800F012F80121024800F011F890
:1053500010B070BD000800405801002090020020ED
:105360005A010020900600202C010020CA4302822E
:10537000704721B1028842F00102028004E00288F5
:105380004FF6FE731A400280704730B50246002087
:1053900000230024158A05EA0103958905EA010422
:1053A00013B10CB1012000E0002030BD1AB1838997
:1053B0000B43838102E083898B4383817047000024
:1053C000002202881D4B98420ED01D4B98420BD0F4
:1053D000B0F1804F08D01B4B984205D01A4B984231
:1053E00002D01A4B984204D14FF68F731A404B8863
:1053F0001A43174B984207D0164B984204D04FF6E9
:10540000FF431A40CB881A4302808B8883850B8820
:1054100003850A4B98420BD0094B984208D00E4B9B
:10542000984205D00D4B984202D00D4B984201D1C5
:105430000B7A03860123838270470000002C014011
:10544000003401400004004000080040000C00400F
:1054500000100040001400400040014000440140A2
:10546000004801404FF6FF71818000210180C1801A
:1054700041800172704710B54FF48020FDF7D2FED5
:1054800010BD704710B50848084908600220096837
:105490000872074807490860074808490860054935
:1054A00009680868804710BDB40100200C01002085
:1054B00020000020100100205000002018010020D2
:1054C00008B54FF4A060FEF7A5FC14208DF800008D
:1054D00002208DF8010000208DF8020001208DF8D7
:1054E00003006846FEF75CFC2A208DF800000020CF
:1054F0008DF801006846FEF753FC08BD10B588B072
:10550000002466480068664908800846008800F460
:1055100000706449098808420AD04FF6FF505F497D
:10552000086061480078401C5F490870FFF7FAF98D
:105530005B48008800F400405A490988084201D0BD
:10554000FCF772FF5648008800F4806055490988CE
:10555000084206D04FF6FF3050490860534948686A
:1055600080474F48008800F400504E49098808429F
:1055700003D04DF6FF70494908604948008800F49F
:10558000805048490988084206D04EF6FF704349CA
:1055900008600020FFF7C5F94148008800F400606A
:1055A0004049098808420CD04148007810B1FFF703
:1055B000BDFD02E00220FFF7B4F94FF2FF7037495A
:1055C00008603748008800F480703649098808422E
:1055D00061D04FF6FF6031490860081D006810F483
:1055E000004F52D033480068401C324908600846DA
:1055F000006803284CD92948001F006810F0080FE4
:1056000046D12648001F006880B22B49086000245C
:1056100007E02248443850F8240080B24DF82400B6
:10562000641C082CF5D32448006840F0010022498E
:1056300008600846006880B21849091F08601E48C3
:10564000006820F001001C4908600846006880B22C
:105650001249091F086000BF1048006810F4806FED
:10566000FAD04FF6FF300D490860002407E05DF8DE
:10567000240080B20949443941F82400641C082CF4
:10568000F5D300200B49086002E0002009490860BA
:105690000720FFF746F908B010BD0000445C004049
:1056A000E800002016010020A400002020000020B7
:1056B00004000020A8000020AC00002010B5FFF777
:1056C0001DFF10BD0020064908604FF43F4005490A
:1056D0000880084600880249091F086000207047BA
:1056E000445C0040160100202DE9F04104460E46BE
:1056F000002504F07F00FDF749FE054604F07F0019
:10570000FDF734FE07462A4639463046FEF74EFC82
:105710002846BDE8F08100BFFEE70000F0B5144662
:1057200004F1010C4FEA6C07DFF824C00CEB4103D5
:105730003D460AE00678401C90F800C046EA0C227C
:1057400023F8022B9B1C401C6D1E002DF2D1F0BDD6
:105750000060004070B504460025212C08D1124895
:105760000068007800F07F0021280ED10F4D0CE07A
:10577000202C0AD10C480068007800F07F00212816
:1057800000D10B4D20200B4908700DB9022070BDCF
:1057900005480068856100210348006841820020B7
:1057A000A8470020F3E700000C010020E1570008A3
:1057B000715900081000002010B504460249204627
:1057C000FFF746FB10BD00007C00002010B504462A
:1057D00002492046FFF73CFB10BD0000740000208A
:1057E000014629B90820034A126810820020704738
:1057F0000148FCE70C0100201400002070B50546AC
:1058000006480068C478042C01DD002070BD0448FF
:1058100000EBC4012846FFF71BFBF7E70C01002053
:10582000840000200246002901DD02207047012A81
:1058300001DD0220FAE70020F8E7000001460848F1
:105840000068007800F07F00212807D1022901D1EB
:1058500000207047222901D10020FAE70220F8E752
:105860000C01002010B500203449096888723448C2
:10587000C079324909684872002030490968C87205
:10588000FFF76AF84FF400710020FFF74BF9102181
:105890000020FFF715F940210020FFF789F880214B
:1058A0000020FFF7EFF80020FCF71EFF254890F8D6
:1058B0002C100020FFF78EF80020FFF7CDF8002114
:1058C0000120FFF72FF9C0210120FFF7DBF820218D
:1058D0000120FFF7F5F800210120FFF7A1F84FF4B0
:1058E000C0610220FFF71EF94FF480710220FFF71C
:1058F000C9F800210220FFF793F820210220FFF7CA
:10590000DFF800210320FFF70DF94FF48871032021
:10591000FFF74EF840210320FFF75CF84FF44051A9
:105920000320FFF77DF800210320FFF7C9F80020CE
:10593000FFF71AF801200449086010BD0C0100208F
:10594000D66A000820000020000000200348817A69
:1059500011B10521024A116070470000B401002016
:10596000000000200420014908607047000000206A
:10597000014629B90820034A1268108200207047A6
:105980000148FCE70C0100201400002003480078C7
:10599000202802D100200149087070471000002023
:1059A0007047000010B5FDF73BFD00200549096870
:1059B0008872FEF735FBFFF785FE0020024908607C
:1059C00010BD00000C01002000000020490050EA3A
:1059D000C12018BF04204A0D18BF40F0010040F25A
:1059E000FF72B2EB515F08BF40F00200012808BF10
:1059F00005207047024A0020110701F017B8000087
:105A000001FDFFFF10B50446D1E9000100F002F8E6
:105A1000206010BD38B504460D466A4600F088F88F
:105A200000987E30009000281FDC0022134620469C
:105A3000294600F037FE18D02046294600F094FC95
:105A40000446002140F608004FF0000040F608012F
:105A5000014040F608004FF0000034F0004004BF61
:105A60000220FAF799FE204638BD0098FF280DDB8A
:105A70000220FAF791FE002213462046294600F044
:105A8000F5FE8CBF04484FF0FF4038BD2046294644
:105A9000BDE8384000F068BC000080FF10B5044647
:105AA0000A46D4E90003194600F0DEF8C4E9000113
:105AB00010BD30380A2801D20120704700207047FD
:105AC00030B583B004460020CDE90000FAF75FFE50
:105AD0000546002221466846FBF722F92846FAF7D8
